:020000040000FA
:1000000088090010C1010000C9010000CB010000F7
:1000100000000000000000000000000000000000E0
:10002000000000000000000000000000CD01000002
:100030000000000000000000CF0100006D21000062
:10004000D3010000D3010000000000008123000064
:10005000D3010000D301000000000000D301000024
:10006000B11C0000D3010000D3010000D301000047
:10007000D3010000D3010000D3010000D301000030
:10008000D3010000D3010000D3010000D301000020
:10009000D3010000D3010000D301000000000000E4
:1000A000D3010000D3010000D3010000D301000000
:1000B000D3010000D3010000D3010000D3010000F0
:1000C00000F002F800F04FF80CA030C808382418EF
:1000D0002D18A246671EAB4654465D46AC4201D180
:1000E00000F041F87E460F3E0FCCB6460126334263
:1000F00000D0FB1AA246AB4633431847A82700009E
:10010000C8270000103A02D378C878C1FAD852073D
:1001100001D330C830C101D504680C6070470000BD
:100120000023002400250026103A01D378C1FBD813
:10013000520700D330C100D50B60704710B5642959
:1001400002D100F05FF910BD002010BD1FB500F016
:10015000D5FC04000020002102F060FB401C606020
:100160001FBD10B510BD04488546FFF7EFFF02F034
:100170008FF900F0F7FC00008809001003B4FFF7C6
:10018000F0FF03BC00F03AFD70B505460C4616467C
:1001900002E00FCC0FC5103E102EFAD2082E02D36B
:1001A00003CC03C5083E042E07D301CC01C5361F7E
:1001B00003E021782970641C6D1C761EF9D270BD95
:1001C0000448804704480047FEE7FEE7FEE7FEE7F5
:1001D000FEE7FEE761230000C100000043435143F6
:1001E00030B55C18010C130C0D4692B25D4380B221
:1001F00051432C19054655430A0C09044D19624117
:100200005843010C00044019514130BD10B504465B
:1002100000F068FB0068005D000704D5DF2C02D009
:100220002046203810BD204610BD00000FB41CB57C
:10023000084B06AA7B4469460090059800F0BBFB7A
:1002400004460020694600F0C9FB20461CBC08BCDF
:1002500004B01847A507000070B50446856900681A
:10026000C10601D5302600E02026C00707D070BDAA
:1002700062683046A1689047206A401C20626D1E6B
:10028000F6D570BD70B5044685690078C00707D102
:1002900070BD6268A16820209047206A401C2062DF
:1002A0006D1EF6D570BD000010B5024A00F0EEFBE1
:1002B00010BD00001400001030B5441C03E00178AC
:1002C000401C00290DD08107F9D10B4BDD0104C87A
:1002D000D11A91432940FAD0001B0A0603D0C01E50
:1002E00030BD001B30BD0A0401D0801E30BD0902A4
:1002F000FCD0401E30BD000001010101FFFFFFFFE7
:10030000FEB5054610460C46184373D0AE468C46E3
:100310000020AD1A01469C4167D3664600270124A0
:100320003D46B61A9D4102D313463A4621246546FE
:1003300076462F04360C3E432D0CB61A9D4104D34D
:10034000150C1B042B4312041034654676462F0609
:10035000360A3E432D0AB61A9D4104D3150E1B02E0
:100360002B4312020834654676462F0736093E4372
:100370002D09B61A9D4104D3150F1B012B43120101
:10038000241D65467646AF07B6083E43AD08B61A4B
:100390009D4104D3950F9B002B439200A41C6546FE
:1003A0007646EF0776083E436D08B61A9D411AD38C
:1003B00092185B41641C16E0001876466546494178
:1003C000B71A9D410191009009D36046B11A984136
:1003D0008E468446009801990025401C6941DD073E
:1003E00052082A435B08641EE6D57246634603B092
:1003F000F0BDFFE700200146C046C0462A4623461E
:10040000F5E70000F7B5002575291068009914A6D6
:1004100011D0C046C046002802DA404211A608E0CA
:10042000009909688A0701D50FA602E0490704D59B
:100430000EA6012501E0C046C046009F00242437D7
:1004400004E000F047FB30313955641C0028F8D136
:100450002B4632462146009800F050FAFEBD0000BF
:10046000000000002D0000002B0000002000000014
:10047000F3B50446002081B020622046E168884739
:1004800000287DD0252802D06268A16883E0454F0E
:1004900000257F442046E16888472028064608DB7F
:1004A000312E06D2B81920380078002801D0054333
:1004B000F0E7A80701D5042085430020E061074646
:1004C000A0612A2E0AD0304601F0C8FF002827D0AC
:1004D000B8000019303E0090866119E00298BA0019
:1004E000121902C8916102902046E1688847012FE5
:1004F000064617D1E06900281FDA202085431CE05A
:1005000000980A2180694843009980193038886131
:100510002046E1688847064601F0A0FF0028EFD199
:10052000012F0AD02E2E08D12046E16888470646C2
:10053000202005437F1C022FC3DBA069002803DABB
:100540004042A06101200543E80701D01020854307
:10055000002E24D030464138192803D80120C0028B
:1005600005432036204625603146029A1546FFF79E
:10057000E5FD00280CD0012807D0ED1DE80800E0BB
:100580000DE0C0000830029077E72D1D029574E75A
:1005900062683046A1689047206A401C6CE7206A78
:1005A000FEBD0000FA230000F7B50F4682B000261A
:1005B000029C00F09FF90090006801902578641C6F
:1005C000002D05D000F08EF90068405DC007F5D120
:1005D0002B2D02D02D2D1CD0641E0098002101600F
:1005E00039462046049A00F0FEF9002F014604D057
:1005F0003868A04201D1029838600098006802284B
:100600000BD00098019A0260700506D5484205B0EB
:10061000F0BD012080020643DFE70846F7E700004F
:100620000346F0B50B439B072DD1244DEF01042A5F
:1006300029D308C810C95E1B9E43121F3E4017D025
:10064000D8B2E1B2401A3106014310D198B2A1B23A
:10065000401A310401430AD118022102000A090A92
:10066000401A3102014302D1180E210E401AF0BD8A
:10067000A342DCD018BA21BA884201D90120F0BDCA
:100680000020C043F0BD002A01D10020F0BD037856
:100690000C78401C491C002B0DD0A3420BD1521EDC
:1006A00009D003780C78401C491C002B03D0A342CE
:1006B00001D1521EEBD1181BF0BD00000101010158
:1006C000F8B5042A2CD3830712D00B78491C037089
:1006D000401C521E83070BD00B78491C0370401C32
:1006E000521E830704D00B78491C0370401C521E15
:1006F0008B079B0F05D0C91ADF002023DE1B08C91A
:100700000AE0FFF741FDF8BD1D4608C9FD401C4643
:10071000B4402C4310C0121F042AF5D2F308C91AA2
:10072000521EF0D40B78491C0370401C521EEAD4B0
:100730000B78491C0370401C012AE4D4097801702D
:10074000F8BD01E004C0091F0429FBD28B0701D5C5
:100750000280801CC90700D00270704700290BD0AE
:10076000C30702D00270401C491E022904D383072C
:1007700002D50280801C891EE3E70022EEE70022FA
:10078000DFE7002203098B422CD3030A8B4211D3EB
:1007900000239C464EE003460B433CD40022430812
:1007A0008B4231D303098B421CD3030A8B4201D302
:1007B00094463FE0C3098B4201D3CB01C01A52419A
:1007C00083098B4201D38B01C01A524143098B42EA
:1007D00001D34B01C01A524103098B4201D30B01D3
:1007E000C01A5241C3088B4201D3CB00C01A5241F8
:1007F00083088B4201D38B00C01A524143088B42BD
:1008000001D34B00C01A5241411A00D20146524155
:10081000104670475DE0CA0F00D04942031000D374
:100820004042534000229C4603098B422DD3030AC9
:100830008B4212D3FC22890112BA030A8B420CD3D9
:10084000890192118B4208D3890192118B4204D302
:1008500089013AD0921100E08909C3098B4201D382
:10086000CB01C01A524183098B4201D38B01C01ABC
:10087000524143098B4201D34B01C01A5241030933
:100880008B4201D30B01C01A5241C3088B4201D3E2
:10089000CB00C01A524183088B4201D38B00C01A8F
:1008A0005241D9D243088B4201D34B00C01A524166
:1008B000411A00D20146634652415B10104601D3F3
:1008C0004042002B00D54942704763465B1000D37D
:1008D000404201B50020C046C04602BD7047704787
:1008E0007047000010B500F009F9001D10BD00BFF1
:1008F0002D1F00000048704728070010FFB5044670
:100900000D4681B0243000902168880604D510225D
:10091000E0699143216000E00120A84201DD471B0E
:1009200000E000270498A1697A191018081AA0613C
:100930002078C00602D42046FFF78EFC002608E08F
:1009400003986268A168805D9047206A401C761C0D
:10095000206204988642F3DB2078C0060AD5204640
:10096000FFF77AFC06E06268A16830209047206AB1
:10097000401C206238467F1E0028F4DC07E0009807
:100980006268A168405D9047206A401C206228464A
:100990006D1E0028F3DC2046FFF774FC207800066B
:1009A00002D5022005B0F0BD0120FBE701694A1C19
:1009B00002610878704700B58FB00291002105915F
:1009C0000549019379440391114604906846FFF765
:1009D0004FFD0FB000BD0000E5FFFFFF0A6810707B
:1009E000521C0A607047F7B5154682B00027029C7A
:1009F0002078641C0197302802D0002D15D015E016
:100A000020780127641C782804D0582802D0002DB3
:100A100009D00BE0002D01D0102D07D12078002740
:100A20001025641C02E0082500E00A250026009637
:100A300010E0009901276943081829467143020C08
:100A400080B200908E183804864201D301200190B4
:100A50002078641C294600F055F80028E9DA03984C
:100A6000002805D0002F01D0641E00E0029C046025
:100A70000198002806D0FFF73DFF02210160C81E43
:100A800005B0F0BD009930040843F9E7F8B5154604
:100A90000E46040003D12C68002C00D10CA4204683
:100AA00000F050F80419207800280ED0274631466F
:100AB000384600F036F804192078002802D00020CB
:100AC0002070641C38462C60F8BD0027FAE700004F
:100AD0000000000001468008081A02091018020AE6
:100AE0001018020C1018C008820012185200891A3F
:100AF00001E0401C0A390A29FBD2704700487047C0
:100B0000480700103A2800D23038202302469A4382
:100B1000412A01D310463738884201D30020C04310
:100B2000704730B503461D78002D03D00A4603E018
:100B3000AC4201D1181A30BD1478521C002CF7D1E8
:100B40005B1CF0E730B503461D78002D08D00A463F
:100B50001478521C002C03D0AC42F9D15B1CF3E793
:100B6000181A30BD10B50446C046C0462046FFF7EF
:100B700005FB10BD024670B50A4392072AD11E4DEF
:100B8000EE0104C808C9541B9443344017D0D0B2B6
:100B9000D9B2401A2106014310D190B299B2401A3D
:100BA000210401430AD110021902000A090A401A5D
:100BB0002102014302D1100E190E401A70BD9A4253
:100BC000DFD010BA19BA884201D9012070BD0020C7
:100BD000C04370BD02780B78401C491C002A09D024
:100BE0009A4207D102780B78401C491C002A01D098
:100BF0009A42EFD0D01A70BD0101010101491820BD
:100C0000ABBEFEE7260002007047000010B563216E
:100C100009010A48FFF7B3FD01210848017420309B
:100C200001701E200649C886012020310875002069
:100C3000024A443A9060D06010BD00005C00001091
:100C40005806001008B50021084600F0AFFA202031
:100C500000F010FD802000F00DFD0020009002E06B
:100C60000098401C00907D21C90000988842F7DB65
:100C7000002000F0ABFA0120104A126900210A4658
:100C800002430E4B1A6100BF042001214A010243B6
:100C90000B4B9A6000BF00BF00BF0948C068C00787
:100CA000C00F0028F8D0022005494031886300BFFA
:100CB000032000F071FA01F0A9FA08BD0000044019
:100CC0000080044070B5244800F01EFC012400BFE1
:100CD0002046002807D001210904884203D8411E7C
:100CE0001D4A516102E000211B4A516100BF00BF53
:100CF0001948406980B2401C044600F0AFF906462E
:100D00001648604301463046FFF73BFDC5B2641C00
:100D100001200004844200D970BD012DD8DB082DCC
:100D2000D6DCFF2191310C4800F0F2FA08200028AF
:100D300005DBC206D20E01219140094A116000BFB5
:100D400000BF05480068C006C00E012108430249E3
:100D5000086000BF00BFDFE700000540801A060002
:100D600000E100E010B500F02DF8FFF76BFF00F098
:100D700075F91149086000F043F90F4948600868A7
:100D80007D21C900FFF7FDFC0446601E0B49884227
:100D900000D90CE0601E0A4948610321081F01F0D8
:100DA00021FB0020064988610720086100BF00F090
:100DB000BDF8FFF787FF10BD18000010FFFFFF0010
:100DC00000E000E010B50520400700F057FA0720CA
:100DD00000F008F9122000F005F901230422002197
:100DE0000520400700F075FA0421002000F010FCF7
:100DF0000123002211460520400700F06AFA002175
:100E0000012000F005FC02221121474800F0BEFB42
:100E10000123022200210520400700F05AFA012197
:100E2000052000F0D5FB0123032200210520400707
:100E300000F04FFA0121042000F0CAFB0123052233
:100E40000021500700F045FA0121082000F0C0FB06
:100E50000123082200210520400700F03AFA012171
:100E6000062000F0B5FB00220E212F4800F08EFB7B
:100E70000123092200210520400700F02AFA012160
:100E8000072000F0A5FB00220D21274800F07EFB83
:100E900001230B2200210520400700F01AFA01214E
:100EA0000B2000F095FB002207211F4800F062FB99
:100EB00001230A220021100700F00BFA01210C2067
:100EC00000F086FB00220821174800F053FB0023A6
:100ED000132219460520400700F0FBF901231322D5
:100EE00000210520400700F0DBF901221D210E48FA
:100EF00000F057FB0023122219460520400700F09E
:100F0000E8F90123122200210520400700F0C8F96A
:100F100001221E21044800F044FB072000F054F891
:100F2000122000F051F810BD0040044010B51648E2
:100F300000F0E6FB0420144A1268144B1A401146D4
:100F40000A460243104B1A6000BF01214B20800269
:100F500000F046F94B21C9010B4800F035FC00BFF9
:100F6000094840680A4908400749486000BF00BF77
:100F70000846006805497C310840012108430249C0
:100F8000086000BF10BD00000040064001DAFC0010
:100F90000603010000200A4909688907890F002912
:100FA00004D0012904D0032906D103E0054804E058
:100FB000044802E0002000E000BF00BF70470000CE
:100FC00040800440001BB70004490A6801218140A9
:100FD000034B19438A4301490A60704780800440EB
:100FE000000010DA01218140034A1268034B1A40C5
:100FF0001143014A1160704780800440FFFFEF25D4
:1010000010B500240F48006B8007800F002806D021
:10101000012808D002280AD0032810D10BE000BF15
:10102000094804460BE000F027F8044607E000F00A
:10103000A9F8044603E000F045F8044600BF00BFED
:10104000204610BD40800440001BB7000246D00679
:10105000C00E431C084658437047000010B5FFF708
:10106000CFFF04460348806BC1B22046FFF789FBDF
:1010700010BD0000408004400E4909688907890FAF
:10108000002904D0012906D003290ED108E000BFB1
:10109000094800BF0BE000BF0849086800BF06E030
:1010A00000BF0749086800BF01E0002000BF00BF83
:1010B0007047000040800440001BB70088280000F3
:1010C0008C28000010B5FFF7D7FF04460349896854
:1010D0004806400E2146FFF7B9FF10BD00800440CE
:1010E000F0B589B000BF1E484069C0B205900598B0
:1010F000002801D100242FE0FFF782FF029005991C
:10110000FFF73FFB0025044600BF15484030006B49
:10111000C0B203900398FF281DD100BF1048403093
:10112000406BC0B204900498FF300130FF210131C0
:101130000290002026462F460791069030463946F9
:10114000069B079AFFF74AF8019100900023029A44
:10115000FFF7D6F8044600BF204609B0F0BD0000F6
:101160008080044070B50446E005060FE506ED0EEC
:101170006A1C5100B200024B9858FFF702FB70BD89
:101180004828000010B50349496AC805C00DFFF79B
:10119000E9FF10BD00800440034908630021024AB2
:1011A0005163012151637047408004400246002092
:1011B000002A01D001231843002901D0022318433B
:1011C000014B18627047000000800440034908602A
:1011D0000021024A51600121516070474080044063
:1011E000FEB505460E46FFF70BFF01902946019814
:1011F000FFF7C7FA0446002C00D10124E0B21D49D4
:10120000486100BF002E2FD0022000BF194980394D
:101210004A6801218140184B19438A431549803996
:101220004A6000BF00BF01218140124A803A5268E3
:10123000DB431A4011430F4A803A516000BF00BFA0
:10124000FF2000F02DFA21460198FFF79AFA0702D5
:1012500029463846FFF795FA00900099C8B205492B
:101260004031486300BF02E0002000F019FAFFF7A8
:1012700037FFFEBD808004400020FEFF10B502460F
:10128000062001218140044B1B68044C2340194374
:10129000014B196000BF10BD80800440FFFFEF25A7
:1012A00070B51E46002E09D000BF012393408C006C
:1012B0004725ED0145192B5100BF09E000BF01236F
:1012C00093408C000925AD0245192B5100BF00BF8A
:1012D00070BD10B54C012418A35410BD10B54C01BD
:1012E0002418A35410BD50220A4042607047016880
:1012F000C906C90E49084900016070470168C9065E
:10130000C90E012211430160704704210162704738
:10131000F8B505460E4600BF686980B2401C7043B0
:101320000746FFF79BFE39460090FFF72AFA04466E
:101330006008201A82B2E003010C284600F001F890
:10134000F8BD10B5022901DA022102E0092900DD09
:101350000921022A01DA022202E0092A00DD09221B
:101360008B1E5B075B0E941E6407640F234343626E
:1013700010BD8162704770B505460C46FF20A08104
:1013800050212846FFF7AFFFA07B40002289002AAA
:1013900001D1012200E000221043C1B22846FFF72C
:1013A000E8FF00BF0220286200BF70BD70B505468F
:1013B0000C46AE691020304000280BD00520A081DB
:1013C00010212846FFF78FFF0021C943284600F06F
:1013D00095F891E04020304000280BD00320A081F8
:1013E00040212846FFF77FFF0021C943284600F02F
:1013F00085F881E0F007C00F002877D000BF68684B
:101400000E2108404008030000F0DDFF050405231D
:10141000515C680069E0A86AC1B26268501C6060F3
:1014200011706089401E60816089002806D000BF6D
:101430000120286200BFFF20A08109E00020A081D8
:101440002846FFF762FF0021C943284600F056F8FE
:101450004BE0208900280ED0FF20A0812168481C85
:1014600020600878A8622089401E208100BF0120EA
:10147000286200BF1AE0608900280DD0A07B4000E0
:10148000401CC1B22846FFF774FF00BF022028624B
:1014900000BFFF20A08109E00020A0812846FFF7BF
:1014A00034FF0021C943284600F028F81DE002203F
:1014B000A0812846FFF729FF0021C943284600F0F4
:1014C0001DF812E00420A0812846FFF71EFF00212E
:1014D000C943284600F012F807E007E00120A08188
:1014E000811E284600F00AF800BF05E00120A08117
:1014F000811E284600F002F8A08970BDC1607047C7
:10150000C16070478160704770B50546284600F09D
:10151000D9FB04460120A04013490968134A114031
:1015200008431149086000BF284600F0E5FB044667
:1015300020460D4980394A68012181400C4B1943EE
:101540008A43094980394A6000BF00BF01218140B8
:10155000054A803A5268DB431A401143024A803AF6
:10156000516000BF00BF70BD80800440FFFFEF25C9
:101570000020FEFF30B58C00045903252D02AC433A
:10158000234614021C438D00445130BD30B58C00FD
:1015900004591825AC432346D4001C438D00445104
:1015A00030BD10B5012A08D100BF8B00C35894028A
:1015B00023438C00035100BF09E000BF8B00C358D8
:1015C0000124A402A3438C00035100BF00BF10BD3F
:1015D00010B500290CD000BF0C4A136801228240CC
:1015E0007F24640622439343084A136000BF0BE044
:1015F00000BF01228240054B1B68DB01DB091A4357
:10160000024B1A6000BF00BF10BD0000C0C1004007
:10161000F0B505076A0E03119D00074EAD192D6840
:10162000FF269640B5432C460D46954025439E0027
:10163000014FF6193560F0BD00C0004000BF0B49F6
:101640004A68012181400A4B19438A4307494A608D
:1016500000BF00BF01218140044A5268DB431A40A9
:101660001143024A516000BF7047000000800440EF
:101670000020FEFF0146084A926B084B1A401046B4
:101680001A460A400346934318466D22120202434B
:10169000014B9A637047000000820440FF80000005
:1016A0000149086370470000C08004400146886813
:1016B000014A1040704700007FFD010070B50546EB
:1016C0000E4614462846FFF7F1FF04210840002883
:1016D00011D02146284600F084F800BFE068216957
:1016E000884201D1012000E00020002803D004211D
:1016F000284600F02FF83146284600F02DF870BD3E
:1017000070B50446204600F0B1FE05460120A84011
:101710000C4909680C4A114008430A49086000BF97
:101720000A48844203D10320FFF788FF09E00848F4
:10173000844203D10420FFF781FF02E00520FFF778
:101740007DFF70BD80800440FFFFEF250040064014
:10175000008006400161704738B504460D4608E038
:1017600000BF6069C0B200906946284600F0BBFB2C
:1017700000BF2046FFF79AFFC007C00F0028EFD137
:1017800038BDC1617047FFB581B0074615461E469A
:10179000009504213846FFF7DDFF32460099029894
:1017A00000F0BDFB04463846029900F01AF8321BDF
:1017B000009D2919029800F0B2FB04190420F8607A
:1017C00000BF204605B0F0BDF8B504460D46FFF752
:1017D00087FC07462901FEF7D4FF0646701E2062EB
:1017E000F8BD38B505460C4604E068460178284641
:1017F000FFF7C7FF2846FFF759FF042108400028DC
:1018000005D06946204600F0FEFB0028EDD138BD2A
:101810000246D006C00E431C0846584370470000DD
:10182000F0B58BB0F9A1FA48FEF73EFD0590F7A19F
:101830000020FEF739FD0490F4A10020FEF734FDEE
:1018400003900A2202A90498FEF7AEFE04460A227B
:1018500002A90398FEF7A8FE06460222EDA105980C
:10186000FEF7DEFE002859D10598FEF725FD022877
:1018700004D0E94886424BD2002E49D00423E7A287
:10188000E3491439E748FFF77EFF2246E6A106A8A0
:10189000FEF7CCFC07463B4606AADD491439E14871
:1018A000FFF771FF632C05D22101D9480C30405C51
:1018B000002801D1022514E02101D5480C30081878
:1018C000407B002801D001250BE02201D0480C30DC
:1018D0001018468001212201CD480C3010180171EA
:1018E00000252A46D2A106A8FEF7A0FC07463B46E3
:1018F00006AAC7491439CB48FFF745FF00200190DD
:10190000012301AAC2491439C648FFF73CFF00BFB2
:101910000B21BF48FEF733FF0BB0F0BD0322C6A179
:101920000598FEF77DFE00284ED10598FEF7C4FC11
:10193000032844D10423B9A2B5491439B948FFF7A3
:1019400022FF2246B8A106A8FEF770FC07463B46D8
:1019500006AAAF491439B348FFF715FF632C05D227
:101960002101AB480C30405C002801D102250FE07A
:101970002101A7480C3008180079002807D0002161
:101980002201A3480C3010180171002500E0012548
:101990002A46A7A106A8FEF749FC07463B4606AA29
:1019A0009B4914399F48FFF7EEFE00200190012368
:1019B00001AA974914399B48FFF7E5FE00BF0B21A8
:1019C0009348FEF7DCFEA7E703229CA10598FEF7EB
:1019D00027FE00281DD10598FEF76EFC032813D1C1
:1019E0001E219748C186032396A2894914398D4840
:1019F000FFF7C9FE00200190012301AA8449143990
:101A00008848FFF7C0FE00BF0B218148FEF7B7FEF4
:101A100082E703228CA10598FEF702FE002843D13D
:101A20000598FEF749FC032839D1042387A2784999
:101A300014397C48FFF7A7FE22467BA106A8FEF7D3
:101A4000F5FB07463B4606AA714914397548FFF76E
:101A50009AFE632C05D221016D480C30405C0028B1
:101A600001D1022504E0210169480C300818057BEA
:101A70002A466FA106A8FEF7D9FB07463B4606AAF1
:101A8000634914396748FFF77EFE00200190012367
:101A900001AA5F4914396348FFF775FE00BF0B21A7
:101AA0005B48FEF76CFE37E703226AA10598FEF754
:101AB000B7FD00284DD10598FEF7FEFB032843D162
:101AC000042365A2524914395648FFF75CFE2246AA
:101AD00055A106A8FEF7AAFB07463B4606AA4C49B5
:101AE00014395048FFF74FFE632C05D221014848B6
:101AF0000C30405C002801D102250EE02101444851
:101B00000C300818457B210141480C3008184088EA
:101B1000002802D01E214A48C1862A4644A106A8B0
:101B2000FEF784FB07463B4606AA394914393D486F
:101B3000FFF729FE00200190012301AA344914393E
:101B40003848FFF720FE00BF0B213148FEF717FE93
:101B5000E2E6032242A10598FEF762FD002854D177
:101B60000598FEF7A9FB03284AD104233DA2284982
:101B700014392C48FFF707FE22462BA106A8FEF7D2
:101B800055FB07463B4606AA214914392548FFF76D
:101B9000FAFD632C05D221011D480C30405C002861
:101BA00001D1002515E0220119490C31511888682E
:101BB0006421FEF7E6FD0546210115480C300818A2
:101BC000407B002805D10021220111480C3010185B
:101BD00081602A4625A106A8FEF728FB07463B465A
:101BE00006AA0B4914390F48FFF7CDFD00200190DC
:101BF000012301AA064914390A48FFF7C4FD00BFB2
:101C00000B210348FEF7BBFD86E633E0202C0000E5
:101C1000500000104F4E0000E703000052535020C8
:101C20000000000000400640253032640000000043
:101C30002C253164000000004F46460041534B0004
:101C400058060010534F4B0041444900534449206B
:101C50000000000041444F0053444F2000000000AA
:101C60005352540054494D20000000002C253033BD
:101C7000640000000B210A48FEF781FD062309A23B
:101C8000074914390948FFF77EFD00200A90012317
:101C90000AAA034914390548FFF775FD00BF3BE662
:101CA00050000010455252203031000000400640E4
:101CB00010B502490248FFF779FB10BD1807001064
:101CC0000000054001460A460A481018002808D0BE
:101CD00007239B03C01A06D001239B03C01A06D119
:101CE00003E0152070471620FCE71720FAE70520CF
:101CF000F8E7000000C0FABF01460A460A4810187B
:101D0000002808D007239B03C01A06D001239B0399
:101D1000C01A06D103E00E2070470F20FCE7102008
:101D2000FAE70620F8E7000000C0FABF10B520214E
:101D3000052000F055F80321002000F051F80021A3
:101D4000012000F04DF80021022000F049F80021A8
:101D5000032000F045F80021042000F041F80021A4
:101D6000062000F03DF80021082000F039F800219D
:101D7000092000F035F800210A2000F031F810BDEC
:101D800001B582B022201349887302A8086001209F
:101D900008814881002088810F48FFF7A8FA0E4883
:101DA000FFF7ACFA01A80B4948600B48FFF7E3FACC
:101DB0000A490948FFF7A6FB064800F0F9FA642033
:101DC00000F04DF905490448FFF79AFB6846007991
:101DD0000EBD000018070010000005405100000172
:101DE00070B505460C4622201149887311480570CC
:101DF00044700860022008810020488188810E48D4
:101E0000FFF775FA0C48FFF779FA09490A48FFF716
:101E1000B2FA0A490848FFF775FB054800F0C8FA0E
:101E2000642000F01CF905490348FFF769FB70BD09
:101E300018070010100000100000054051000001BC
:101E400010B50920FFF79CFF0407240F00210C4860
:101E50000173E107C90F01770220204041080848BB
:101E60002030017304202040810805483030017380
:101E700008202040C10802484030017310BD000016
:101E80005C00001010B500240E48407FC007C00F52
:101E900004430C482030407BC007800F04430948AE
:101EA0003030407BC007400F044306484030407B41
:101EB000C007000F0443240121460A20FFF790FFCA
:101EC00010BD00005C0000100146C8680A69801A55
:101ED000704710B5044621606360A2600020206155
:101EE000E060012010BD70B504460E46256820460E
:101EF00000F07DF8002801D0002070BD6168491E07
:101F0000E0680840A1684843451931462846A26860
:101F1000FEF7D6FBE068401CE0600120EDE7F7B576
:101F200082B00446174620680190204600F05FF812
:101F3000002802D0002005B0F0BD00BF2046FFF70A
:101F4000C3FF61680D1A2E466168491EE0680840AB
:101F500040196168884205D36168491EE0680840FD
:101F600061680D1A761BBD4201DA284600E038464A
:101F700005467F1BBE4201DA304600E03846064681
:101F8000BF1B6168491EE0680840A1684843019989
:101F900040180190A0686843024603990198FEF733
:101FA0008FFBE0684019E0606168491EE068084006
:101FB000A1684843216840180190A06868430399CC
:101FC00040180390A0687043024603990198FEF7F9
:101FD00077FBE0688019E060A819ACE70146C868A3
:101FE0000A69904201D1012070470020FCE710B53A
:101FF00004462046FFF768FF6168884201DB012044
:1020000010BD0020FCE770B504460D46266820464A
:10201000FFF7E4FF002801D0002070BD6168491E71
:1020200020690840A1684843861931462846A268BD
:10203000FEF746FB2069401C20610120EDE770B5EA
:102040000446204600F080F8054600F085F8064674
:1020500000BF304600F00FF8A842FAD370BD70B54B
:10206000044600F079F8054600BF284600F003F862
:10207000A042FAD370BD10B5044600F06DF8001B05
:1020800010BD000010B500BF0A2001218140254A83
:102090001268254B1A401143224A116000BF0720E5
:1020A00000BF204980394A68012181401F4B1943F4
:1020B0008A431C4980394A6000BF00BF012181402A
:1020C000184A803A5268DB431A401143154A803A55
:1020D000516000BF00BF00BF0020154A9268D107C1
:1020E000C90F0A460243124B9A6000BF11481946B5
:1020F000086000BF00BF08468068FEF7AFFF0E49CA
:1021000008607D21C9000C480068FEF73AFB0B49C6
:1021100008600B4908480068FEF733FB094908606E
:1021200010BD000080800440FFFFEF250020FEFF6F
:1021300010400040FFFFFF87000000100400001067
:1021400040420F0008000010014602480068484362
:10215000704700000400001000BF024840680249B8
:10216000081A704710400040FFFFFF0770B5254870
:102170008268C0680021521C484122498A60C860B8
:1021800008468468C1687D22D20000232046FEF7FD
:10219000B7F800214A404B401A4302D101201A49A6
:1021A000887718488468C1680A2200232046FEF711
:1021B000A7F801214A401A4302D101201249C877E9
:1021C00011482038008F002807D00F482038008F92
:1021D000401E0D492039088702E001200A4948774E
:1021E00009482038408F002808D007482038408F01
:1021F000401E81B204482038418702E00120024994
:10220000087770BD180000107806001070B5002423
:10221000414D4248406AC005000F030000F0D3F86A
:1022200010090B0D0F11131517191B1D1F21232545
:10223000272900241DE03A4C1BE03A4C19E03A4CA7
:1022400017E03A4C15E03A4C13E03A4C11E03A4CA6
:102250000FE03A4C0DE03A4C0BE03A4C09E03A4CB6
:1022600007E03A4C05E03A4C03E03A4C01E03A4CC6
:1022700000BF00BF2948406AC006C00E401C410094
:102280002046FEF77EFA044624484030006B800763
:10229000800F002806D0012807D002281FD003286D
:1022A0002DD11FE02D4805602AE01C484030006811
:1022B0008007800F002804D0012805D003280BD107
:1022C00006E02648056008E013482449086004E059
:1022D00000202249086000E000BF00BF10E01F4856
:1022E00004600DE0FEF756FE06460C498968C806F4
:1022F000C00E3146FFF78CFA1849086000E000BFB5
:1023000000BF06484030816B14480068FEF739FA78
:102310001249086070BD0000001BB7000080044037
:10232000C027090090051000C05C1500F0B31A002A
:10233000200B2000009F2400E0322900C0C62D00A1
:1023400050973100E06735007038390000093D00D2
:102350004016400080234300C03046000C000010AF
:102360000348044988600448044908607047000035
:102370000000000000ED00E0001BB7000C000010A2
:1023800010B5084A114614390748FFF797F9642039
:102390000649088701231322002105204007FEF784
:1023A0009DFF10BD3C000010004006405806001084
:1023B00000BF8189FF29FCD001890029F9D1418919
:1023C0000029F6D1704730B47446641E2578641C29
:1023D000AB4204D3635D5B00E31830BC18471D4675
:1023E000F8E7000010B5002819DB1A4A03231B0286
:1023F000D21883089B00D2588307DC0EFF23A3402A
:102400009A438B071B0E8407E40EA3401A43114B1B
:10241000032424021B198408A4001A5118E00E4A50
:1024200003071B0F083B9B089B00D2588307DC0E59
:10243000FF23A3409A438B071B0E8407E40EA3409F
:102440001A43054B0407240F083CA408A4001A51A2
:1024500010BD000000E100E01CED00E030380A286B
:1024600001D2012070470020704700000146064855
:10247000814201D10E2070470448814201D10F20D2
:10248000F9E71020F7E70000004006400080064012
:1024900008B5002672B6FFF7B9FEFEF763FC00230D
:1024A0001322194605204007FEF718FF00231222C9
:1024B000194605204007FEF711FF40230122D149AC
:1024C000D148FFF706FD40230122D049CE48143001
:1024D000FFF7FFFCFEF79AFB62B6FFF7D3FDFF2084
:1024E000F530FFF7ACFD0123132200210520400742
:1024F000FEF7F4FEFF20F530FFF7A1FDFFF716FC15
:1025000000231322194605204007FEF7E7FEFF20AF
:10251000F530FFF794FD0120BD49C86000BF0420DD
:10252000086100BF0320002805DBC206D20E01218E
:102530009140B84A116000BF0123132200210520F9
:102540004007FEF7CBFEFF20F530FFF778FD0023B4
:102550001322194605204007FEF7C0FEFF20F53084
:10256000FFF76DFD4CE1A84810388468C16864220B
:1025700000232046FDF7C4FE002108464A404340A0
:102580001A4301D1FFF75CFC9F48C1680269891AB0
:1025900000292DD06946FFF736FD684600780028EF
:1025A00010D164209C494887012312220021052074
:1025B0004007FEF793FEFFF733F9002192483030D1
:1025C000C17014E090483030C0780B280FDC6846AA
:1025D0000078FDF71BFEC1B28B483030C278C0785E
:1025E000401CC3B288483030C3700838815400BFE3
:1025F00089482030C07F00287BD0002086492031C8
:10260000C8770026BBE031017F4834300818007BD2
:10261000002829D031017C4834300818408800282F
:1026200044D03101784834300818407B00283DD12F
:102630007948C08E002839D03101734834300818E9
:102640000079002832D0002132016F483430101850
:102650008160012132016C4834301018417301202F
:102660006D492031087521E0310167483430081880
:10267000408800281AD03101634834300818407B64
:10268000002813D0002132015F4834301018417304
:1026900032015D4834301018418032015A483430DC
:1026A0001018017101205C4920310875310156482C
:1026B000343008183201816853483430101840888B
:1026C00064225043814215D1002132014E483430FA
:1026D0001018417332014C483430101841803201D7
:1026E000494834301018017101204B4920310875D8
:1026F00010E047E031014448343008183201816865
:10270000414834301018407B091832013E483430BB
:102710001018816031013C483430081800790028D5
:1027200013D100213201384834301018417332017E
:102730003548343010184180320133483430101895
:10274000017101203449203108753348C08E0028BA
:1027500013D1002132012C4834301018417332015A
:10276000294834301018418032012748343010187D
:1027700001710120284920310875701CC6B2632EF2
:1027800000DA40E724482030807F00280DD022481E
:10279000C08E002805D02048C08E401E81B21E4841
:1027A000C18600201C49203188771B482030407F9B
:1027B00000280AD000231322194605204007FEF7FF
:1027C0008DFD002014492031487713482030007FC8
:1027D00000280AD000231222194605204007FEF7E0
:1027E0007DFD00200C49203108770B482030007D0A
:1027F000002805D0FFF746FB002007492031087567
:10280000B1E600009806001028000010D80600105D
:102810000040064000E100E05806001010B5002915
:102820000AD00878002807D005487844FEF7A2F9B6
:10283000002801D0002010BD0248784410BD0000DF
:102840009A0000009200000000000000C02709006C
:1028500090051000C05C1500F0B31A00200B20009A
:10286000009F2400E0322900C0C62D00509731009F
:10287000E06735007038390000093D00401640001F
:1028800080234300C0304600001BB700000000005A
:102890000400000800000000000000020001000029
:1028A00010000000D42900000000001018000000F3
:1028B00004010000EC29000018000010700900005D
:1028C000200100001001000043000000F8FFFFFF9E
:1028D0000040404040404040404041414141414033
:1028E00040404040404040404040404040404040E8
:1028F0004005020202020202020202020202020277
:10290000022020202020202020202002020202027B
:1029100002029090909090901010101010101010D3
:1029200010101010101010101010101002020202DF
:102930000202888888888888080808080808080823
:10294000080808080808080808080808020202021F
:102950004000000000000000000000000000000037
:102960000000000000000000000000000000000067
:102970000000000000000000000000000000000057
:102980000000000000000000000000000000000047
:102990000000000000000000000000000000000037
:1029A0000000000000000000000000000000000027
:1029B0000000000000000000000000000000000017
:1029C0000000000000000000000000000000000007
:1029D00000000000000000000000000000000000F7
:0C29E000001BB700000000000000000019
:04000005000000C136
:00000001FF
